{"abi":[{"type":"constructor","inputs":[{"name":"name","type":"string","internalType":"string"},{"name":"symbol","type":"string","internalType":"string"}],"stateMutability":"nonpayable"},{"type":"function","name":"approve","inputs":[{"name":"to","type":"address","internalType":"address"},{"name":"tokenId","type":"uint256","internalType":"uint256"}],"outputs":[],"stateMutability":"nonpayable"},{"type":"function","name":"balanceOf","inputs":[{"name":"owner","type":"address","internalType":"address"}],"outputs":[{"name":"","type":"uint256","internalType":"uint256"}],"stateMutability":"view"},{"type":"function","name":"dataAccessPermissions","inputs":[{"name":"","type":"uint256","internalType":"uint256"},{"name":"","type":"address","internalType":"address"},{"name":"","type":"bytes32","internalType":"bytes32"}],"outputs":[{"name":"","type":"bool","internalType":"bool"}],"stateMutability":"view"},{"type":"function","name":"getApproved","inputs":[{"name":"tokenId","type":"uint256","internalType":"uint256"}],"outputs":[{"name":"","type":"address","internalType":"address"}],"stateMutability":"view"},{"type":"function","name":"grantAccess","inputs":[{"name":"tokenId","type":"uint256","internalType":"uint256"},{"name":"agentAddress","type":"address","internalType":"address"},{"name":"dataTypeHash","type":"bytes32","internalType":"bytes32"}],"outputs":[],"stateMutability":"nonpayable"},{"type":"function","name":"hasAccess","inputs":[{"name":"tokenId","type":"uint256","internalType":"uint256"},{"name":"agentAddress","type":"address","internalType":"address"},{"name":"dataTypeHash","type":"bytes32","internalType":"bytes32"}],"outputs":[{"name":"","type":"bool","internalType":"bool"}],"stateMutability":"view"},{"type":"function","name":"isApprovedForAll","inputs":[{"name":"owner","type":"address","internalType":"address"},{"name":"operator","type":"address","internalType":"address"}],"outputs":[{"name":"","type":"bool","internalType":"bool"}],"stateMutability":"view"},{"type":"function","name":"mint","inputs":[{"name":"to","type":"address","internalType":"address"},{"name":"tokenId","type":"uint256","internalType":"uint256"},{"name":"uri","type":"string","internalType":"string"}],"outputs":[],"stateMutability":"nonpayable"},{"type":"function","name":"name","inputs":[],"outputs":[{"name":"","type":"string","internalType":"string"}],"stateMutability":"view"},{"type":"function","name":"owner","inputs":[],"outputs":[{"name":"","type":"address","internalType":"address"}],"stateMutability":"view"},{"type":"function","name":"ownerOf","inputs":[{"name":"tokenId","type":"uint256","internalType":"uint256"}],"outputs":[{"name":"","type":"address","internalType":"address"}],"stateMutability":"view"},{"type":"function","name":"renounceOwnership","inputs":[],"outputs":[],"stateMutability":"nonpayable"},{"type":"function","name":"revokeAccess","inputs":[{"name":"tokenId","type":"uint256","internalType":"uint256"},{"name":"agentAddress","type":"address","internalType":"address"},{"name":"dataTypeHash","type":"bytes32","internalType":"bytes32"}],"outputs":[],"stateMutability":"nonpayable"},{"type":"function","name":"safeTransferFrom","inputs":[{"name":"from","type":"address","internalType":"address"},{"name":"to","type":"address","internalType":"address"},{"name":"tokenId","type":"uint256","internalType":"uint256"}],"outputs":[],"stateMutability":"nonpayable"},{"type":"function","name":"safeTransferFrom","inputs":[{"name":"from","type":"address","internalType":"address"},{"name":"to","type":"address","internalType":"address"},{"name":"tokenId","type":"uint256","internalType":"uint256"},{"name":"data","type":"bytes","internalType":"bytes"}],"outputs":[],"stateMutability":"nonpayable"},{"type":"function","name":"setApprovalForAll","inputs":[{"name":"operator","type":"address","internalType":"address"},{"name":"approved","type":"bool","internalType":"bool"}],"outputs":[],"stateMutability":"nonpayable"},{"type":"function","name":"supportsInterface","inputs":[{"name":"interfaceId","type":"bytes4","internalType":"bytes4"}],"outputs":[{"name":"","type":"bool","internalType":"bool"}],"stateMutability":"view"},{"type":"function","name":"symbol","inputs":[],"outputs":[{"name":"","type":"string","internalType":"string"}],"stateMutability":"view"},{"type":"function","name":"tokenIdCounter","inputs":[],"outputs":[{"name":"","type":"uint256","internalType":"uint256"}],"stateMutability":"view"},{"type":"function","name":"tokenURI","inputs":[{"name":"tokenId","type":"uint256","internalType":"uint256"}],"outputs":[{"name":"","type":"string","internalType":"string"}],"stateMutability":"view"},{"type":"function","name":"transferFrom","inputs":[{"name":"from","type":"address","internalType":"address"},{"name":"to","type":"address","internalType":"address"},{"name":"tokenId","type":"uint256","internalType":"uint256"}],"outputs":[],"stateMutability":"nonpayable"},{"type":"function","name":"transferOwnership","inputs":[{"name":"newOwner","type":"address","internalType":"address"}],"outputs":[],"stateMutability":"nonpayable"},{"type":"event","name":"AccessGranted","inputs":[{"name":"tokenId","type":"uint256","indexed":true,"internalType":"uint256"},{"name":"agentAddress","type":"address","indexed":true,"internalType":"address"},{"name":"dataTypeHash","type":"bytes32","indexed":true,"internalType":"bytes32"}],"anonymous":false},{"type":"event","name":"AccessRevoked","inputs":[{"name":"tokenId","type":"uint256","indexed":true,"internalType":"uint256"},{"name":"agentAddress","type":"address","indexed":true,"internalType":"address"},{"name":"dataTypeHash","type":"bytes32","indexed":true,"internalType":"bytes32"}],"anonymous":false},{"type":"event","name":"Approval","inputs":[{"name":"owner","type":"address","indexed":true,"internalType":"address"},{"name":"approved","type":"address","indexed":true,"internalType":"address"},{"name":"tokenId","type":"uint256","indexed":true,"internalType":"uint256"}],"anonymous":false},{"type":"event","name":"ApprovalForAll","inputs":[{"name":"owner","type":"address","indexed":true,"internalType":"address"},{"name":"operator","type":"address","indexed":true,"internalType":"address"},{"name":"approved","type":"bool","indexed":false,"internalType":"bool"}],"anonymous":false},{"type":"event","name":"BatchMetadataUpdate","inputs":[{"name":"_fromTokenId","type":"uint256","indexed":false,"internalType":"uint256"},{"name":"_toTokenId","type":"uint256","indexed":false,"internalType":"uint256"}],"anonymous":false},{"type":"event","name":"MetadataUpdate","inputs":[{"name":"_tokenId","type":"uint256","indexed":false,"internalType":"uint256"}],"anonymous":false},{"type":"event","name":"OwnershipTransferred","inputs":[{"name":"previousOwner","type":"address","indexed":true,"internalType":"address"},{"name":"newOwner","type":"address","indexed":true,"internalType":"address"}],"anonymous":false},{"type":"event","name":"Transfer","inputs":[{"name":"from","type":"address","indexed":true,"internalType":"address"},{"name":"to","type":"address","indexed":true,"internalType":"address"},{"name":"tokenId","type":"uint256","indexed":true,"internalType":"uint256"}],"anonymous":false}],"bytecode":{"object":"0x608060405234801561000f575f5ffd5b50604051611e55380380611e5583398101604081905261002e9161015a565b81815f61003b8382610243565b5060016100488282610243565b50505061006161005c61006860201b60201c565b61006c565b50506102fd565b3390565b600780546001600160a01b038381166001600160a01b0319831681179093556040519116919082907f8be0079c531659141344cd1fd0a4f28419497f9722a3daafe3b4186f6b6457e0905f90a35050565b634e487b7160e01b5f52604160045260245ffd5b5f82601f8301126100e0575f5ffd5b81516001600160401b038111156100f9576100f96100bd565b604051601f8201601f19908116603f011681016001600160401b0381118282101715610127576101276100bd565b60405281815283820160200185101561013e575f5ffd5b8160208501602083015e5f918101602001919091529392505050565b5f5f6040838503121561016b575f5ffd5b82516001600160401b03811115610180575f5ffd5b61018c858286016100d1565b602085015190935090506001600160401b038111156101a9575f5ffd5b6101b5858286016100d1565b9150509250929050565b600181811c908216806101d357607f821691505b6020821081036101f157634e487b7160e01b5f52602260045260245ffd5b50919050565b601f82111561023e57805f5260205f20601f840160051c8101602085101561021c5750805b601f840160051c820191505b8181101561023b575f8155600101610228565b50505b505050565b81516001600160401b0381111561025c5761025c6100bd565b6102708161026a84546101bf565b846101f7565b6020601f8211600181146102a2575f831561028b5750848201515b5f19600385901b1c1916600184901b17845561023b565b5f84815260208120601f198516915b828110156102d157878501518255602094850194600190920191016102b1565b50848210156102ee57868401515f19600387901b60f8161c191681555b50505050600190811b01905550565b611b4b8061030a5f395ff3fe608060405234801561000f575f5ffd5b506004361061013d575f3560e01c80638da5cb5b116100b4578063c604576211610079578063c6045762146102ba578063c87b56dd146102ed578063d2cd6a8714610300578063d3fc986414610313578063e985e9c514610326578063f2fde38b14610339575f5ffd5b80638da5cb5b1461027257806395d89b411461028357806398bdf6f51461028b578063a22cb46514610294578063b88d4fde146102a7575f5ffd5b806323b872dd1161010557806323b872dd146101fd57806342842e0e146102105780636352211e146102235780636af54a261461023657806370a0823114610249578063715018a61461026a575f5ffd5b806301ffc9a71461014157806306fdde0314610169578063081812fc1461017e578063095ea7b3146101a957806320273057146101be575b5f5ffd5b61015461014f36600461147d565b61034c565b60405190151581526020015b60405180910390f35b61017161035c565b60405161016091906114c6565b61019161018c3660046114d8565b6103eb565b6040516001600160a01b039091168152602001610160565b6101bc6101b736600461150a565b610410565b005b6101546101cc366004611532565b5f9283526009602090815260408085206001600160a01b039490941685529281528284209184525290205460ff1690565b6101bc61020b366004611564565b610529565b6101bc61021e366004611564565b61055a565b6101916102313660046114d8565b610574565b6101bc610244366004611532565b6105d3565b61025c61025736600461159e565b6106be565b604051908152602001610160565b6101bc610742565b6007546001600160a01b0316610191565b610171610755565b61025c60085481565b6101bc6102a23660046115b7565b610764565b6101bc6102b536600461167b565b610773565b6101546102c8366004611532565b600960209081525f938452604080852082529284528284209052825290205460ff1681565b6101716102fb3660046114d8565b6107ab565b6101bc61030e366004611532565b6107b6565b6101bc6103213660046116f2565b61089e565b610154610334366004611758565b610952565b6101bc61034736600461159e565b61097f565b5f610356826109f8565b92915050565b60605f805461036a90611789565b80601f016020809104026020016040519081016040528092919081815260200182805461039690611789565b80156103e15780601f106103b8576101008083540402835291602001916103e1565b820191905f5260205f20905b8154815290600101906020018083116103c457829003601f168201915b5050505050905090565b5f6103f582610a1c565b505f908152600460205260409020546001600160a01b031690565b5f61041a82610574565b9050806001600160a01b0316836001600160a01b03160361048c5760405162461bcd60e51b815260206004820152602160248201527f4552433732313a20617070726f76616c20746f2063757272656e74206f776e656044820152603960f91b60648201526084015b60405180910390fd5b336001600160a01b03821614806104a857506104a88133610952565b61051a5760405162461bcd60e51b815260206004820152603d60248201527f4552433732313a20617070726f76652063616c6c6572206973206e6f7420746f60448201527f6b656e206f776e6572206f7220617070726f76656420666f7220616c6c0000006064820152608401610483565b6105248383610a7a565b505050565b6105333382610ae7565b61054f5760405162461bcd60e51b8152600401610483906117c1565b610524838383610b45565b61052483838360405180602001604052805f815250610773565b5f818152600260205260408120546001600160a01b0316806103565760405162461bcd60e51b8152602060048201526018602482015277115490cdcc8c4e881a5b9d985b1a59081d1bdad95b88125160421b6044820152606401610483565b336105dd84610574565b6001600160a01b031614806106025750336105f7846103eb565b6001600160a01b0316145b8061061a575061061a61061484610574565b33610952565b6106365760405162461bcd60e51b81526004016104839061180e565b6001600160a01b03821661065c5760405162461bcd60e51b815260040161048390611859565b5f8381526009602090815260408083206001600160a01b038616808552908352818420858552909252808320805460ff1916905551839286917fb20db567355a9ea1c9525a5d2d56d13c111811dfe06801ce8df7aea56fe540689190a4505050565b5f6001600160a01b0382166107275760405162461bcd60e51b815260206004820152602960248201527f4552433732313a2061646472657373207a65726f206973206e6f7420612076616044820152683634b21037bbb732b960b91b6064820152608401610483565b506001600160a01b03165f9081526003602052604090205490565b61074a610ca7565b6107535f610d01565b565b60606001805461036a90611789565b61076f338383610d52565b5050565b61077d3383610ae7565b6107995760405162461bcd60e51b8152600401610483906117c1565b6107a584848484610e1f565b50505050565b606061035682610e52565b336107c084610574565b6001600160a01b031614806107e55750336107da846103eb565b6001600160a01b0316145b806107f757506107f761061484610574565b6108135760405162461bcd60e51b81526004016104839061180e565b6001600160a01b0382166108395760405162461bcd60e51b815260040161048390611859565b5f8381526009602090815260408083206001600160a01b038616808552908352818420858552909252808320805460ff1916600117905551839286917f79a968e34ea0e6340899944c73fff43e114b73bcaf28d5513d19ab4c9c77f6289190a4505050565b6001600160a01b0383166108f45760405162461bcd60e51b815260206004820181905260248201527f4552433732313a206d696e7420746f20746865207a65726f20616464726573736044820152606401610483565b5f828152600260205260409020546001600160a01b0316156109285760405162461bcd60e51b8152600401610483906118a0565b6109328383610f54565b61093c828261107c565b60085461094a9060016118d7565b600855505050565b6001600160a01b039182165f90815260056020908152604080832093909416825291909152205460ff1690565b610987610ca7565b6001600160a01b0381166109ec5760405162461bcd60e51b815260206004820152602660248201527f4f776e61626c653a206e6577206f776e657220697320746865207a65726f206160448201526564647265737360d01b6064820152608401610483565b6109f581610d01565b50565b5f6001600160e01b03198216632483248360e11b1480610356575061035682611145565b5f818152600260205260409020546001600160a01b03166109f55760405162461bcd60e51b8152602060048201526018602482015277115490cdcc8c4e881a5b9d985b1a59081d1bdad95b88125160421b6044820152606401610483565b5f81815260046020526040902080546001600160a01b0319166001600160a01b0384169081179091558190610aae82610574565b6001600160a01b03167f8c5be1e5ebec7d5bd14f71427d1e84f3dd0314c0f7b2291e5b200ac8c7c3b92560405160405180910390a45050565b5f5f610af283610574565b9050806001600160a01b0316846001600160a01b03161480610b195750610b198185610952565b80610b3d5750836001600160a01b0316610b32846103eb565b6001600160a01b0316145b949350505050565b826001600160a01b0316610b5882610574565b6001600160a01b031614610b7e5760405162461bcd60e51b8152600401610483906118f6565b6001600160a01b038216610be05760405162461bcd60e51b8152602060048201526024808201527f4552433732313a207472616e7366657220746f20746865207a65726f206164646044820152637265737360e01b6064820152608401610483565b826001600160a01b0316610bf382610574565b6001600160a01b031614610c195760405162461bcd60e51b8152600401610483906118f6565b5f81815260046020908152604080832080546001600160a01b03199081169091556001600160a01b038781168086526003855283862080545f1901905590871680865283862080546001019055868652600290945282852080549092168417909155905184937fddf252ad1be2c89b69c2b068fc378daa952ba7f163c4a11628f55a4df523b3ef91a4505050565b6007546001600160a01b031633146107535760405162461bcd60e51b815260206004820181905260248201527f4f776e61626c653a2063616c6c6572206973206e6f7420746865206f776e65726044820152606401610483565b600780546001600160a01b038381166001600160a01b0319831681179093556040519116919082907f8be0079c531659141344cd1fd0a4f28419497f9722a3daafe3b4186f6b6457e0905f90a35050565b816001600160a01b0316836001600160a01b031603610db35760405162461bcd60e51b815260206004820152601960248201527f4552433732313a20617070726f766520746f2063616c6c6572000000000000006044820152606401610483565b6001600160a01b038381165f81815260056020908152604080832094871680845294825291829020805460ff191686151590811790915591519182527f17307eab39ab6107e8899845ad3d59bd9653f200f220920489ca2b5937696c31910160405180910390a3505050565b610e2a848484610b45565b610e3684848484611194565b6107a55760405162461bcd60e51b81526004016104839061193b565b6060610e5d82610a1c565b5f8281526006602052604081208054610e7590611789565b80601f0160208091040260200160405190810160405280929190818152602001828054610ea190611789565b8015610eec5780601f10610ec357610100808354040283529160200191610eec565b820191905f5260205f20905b815481529060010190602001808311610ecf57829003601f168201915b505050505090505f610f0860408051602081019091525f815290565b905080515f03610f19575092915050565b815115610f4b578082604051602001610f339291906119a4565b60405160208183030381529060405292505050919050565b610b3d84611291565b6001600160a01b038216610faa5760405162461bcd60e51b815260206004820181905260248201527f4552433732313a206d696e7420746f20746865207a65726f20616464726573736044820152606401610483565b5f818152600260205260409020546001600160a01b031615610fde5760405162461bcd60e51b8152600401610483906118a0565b5f818152600260205260409020546001600160a01b0316156110125760405162461bcd60e51b8152600401610483906118a0565b6001600160a01b0382165f81815260036020908152604080832080546001019055848352600290915280822080546001600160a01b0319168417905551839291907fddf252ad1be2c89b69c2b068fc378daa952ba7f163c4a11628f55a4df523b3ef908290a45050565b5f828152600260205260409020546001600160a01b03166110f65760405162461bcd60e51b815260206004820152602e60248201527f45524337323155524953746f726167653a2055524920736574206f66206e6f6e60448201526d32bc34b9ba32b73a103a37b5b2b760911b6064820152608401610483565b5f82815260066020526040902061110d8282611a03565b506040518281527ff8e1a15aba9398e019f0b49df1a4fde98ee17ae345cb5f6b5e2c27f5033e8ce79060200160405180910390a15050565b5f6001600160e01b031982166380ac58cd60e01b148061117557506001600160e01b03198216635b5e139f60e01b145b8061035657506301ffc9a760e01b6001600160e01b0319831614610356565b5f6001600160a01b0384163b1561128657604051630a85bd0160e11b81526001600160a01b0385169063150b7a02906111d7903390899088908890600401611abe565b6020604051808303815f875af1925050508015611211575060408051601f3d908101601f1916820190925261120e91810190611afa565b60015b61126c573d80801561123e576040519150601f19603f3d011682016040523d82523d5f602084013e611243565b606091505b5080515f036112645760405162461bcd60e51b81526004016104839061193b565b805181602001fd5b6001600160e01b031916630a85bd0160e11b149050610b3d565b506001949350505050565b606061129c82610a1c565b5f6112b160408051602081019091525f815290565b90505f8151116112cf5760405180602001604052805f8152506112fa565b806112d984611301565b6040516020016112ea9291906119a4565b6040516020818303038152906040525b9392505050565b60605f61130d83611391565b60010190505f8167ffffffffffffffff81111561132c5761132c6115f0565b6040519080825280601f01601f191660200182016040528015611356576020820181803683370190505b5090508181016020015b5f19016f181899199a1a9b1b9c1cb0b131b232b360811b600a86061a8153600a850494508461136057509392505050565b5f8072184f03e93ff9f4daa797ed6e38ed64bf6a1f0160401b83106113cf5772184f03e93ff9f4daa797ed6e38ed64bf6a1f0160401b830492506040015b6d04ee2d6d415b85acef810000000083106113fb576d04ee2d6d415b85acef8100000000830492506020015b662386f26fc10000831061141957662386f26fc10000830492506010015b6305f5e1008310611431576305f5e100830492506008015b612710831061144557612710830492506004015b60648310611457576064830492506002015b600a83106103565760010192915050565b6001600160e01b0319811681146109f5575f5ffd5b5f6020828403121561148d575f5ffd5b81356112fa81611468565b5f81518084528060208401602086015e5f602082860101526020601f19601f83011685010191505092915050565b602081525f6112fa6020830184611498565b5f602082840312156114e8575f5ffd5b5035919050565b80356001600160a01b0381168114611505575f5ffd5b919050565b5f5f6040838503121561151b575f5ffd5b611524836114ef565b946020939093013593505050565b5f5f5f60608486031215611544575f5ffd5b83359250611554602085016114ef565b9150604084013590509250925092565b5f5f5f60608486031215611576575f5ffd5b61157f846114ef565b925061158d602085016114ef565b929592945050506040919091013590565b5f602082840312156115ae575f5ffd5b6112fa826114ef565b5f5f604083850312156115c8575f5ffd5b6115d1836114ef565b9150602083013580151581146115e5575f5ffd5b809150509250929050565b634e487b7160e01b5f52604160045260245ffd5b5f5f67ffffffffffffffff84111561161e5761161e6115f0565b50604051601f19601f85018116603f0116810181811067ffffffffffffffff8211171561164d5761164d6115f0565b604052838152905080828401851015611664575f5ffd5b838360208301375f60208583010152509392505050565b5f5f5f5f6080858703121561168e575f5ffd5b611697856114ef565b93506116a5602086016114ef565b925060408501359150606085013567ffffffffffffffff8111156116c7575f5ffd5b8501601f810187136116d7575f5ffd5b6116e687823560208401611604565b91505092959194509250565b5f5f5f60608486031215611704575f5ffd5b61170d846114ef565b925060208401359150604084013567ffffffffffffffff81111561172f575f5ffd5b8401601f8101861361173f575f5ffd5b61174e86823560208401611604565b9150509250925092565b5f5f60408385031215611769575f5ffd5b611772836114ef565b9150611780602084016114ef565b90509250929050565b600181811c9082168061179d57607f821691505b6020821081036117bb57634e487b7160e01b5f52602260045260245ffd5b50919050565b6020808252602d908201527f4552433732313a2063616c6c6572206973206e6f7420746f6b656e206f776e6560408201526c1c881bdc88185c1c1c9bdd9959609a1b606082015260800190565b6020808252602b908201527f4361727649644e46543a2043616c6c6572206973206e6f74206f776e6572206e60408201526a1bdc88185c1c1c9bdd995960aa1b606082015260800190565b60208082526027908201527f4361727649644e46543a204167656e7420616464726573732063616e6e6f74206040820152666265207a65726f60c81b606082015260800190565b6020808252601c908201527f4552433732313a20746f6b656e20616c7265616479206d696e74656400000000604082015260600190565b8082018082111561035657634e487b7160e01b5f52601160045260245ffd5b60208082526025908201527f4552433732313a207472616e736665722066726f6d20696e636f72726563742060408201526437bbb732b960d91b606082015260800190565b60208082526032908201527f4552433732313a207472616e7366657220746f206e6f6e20455243373231526560408201527131b2b4bb32b91034b6b83632b6b2b73a32b960711b606082015260800190565b5f81518060208401855e5f93019283525090919050565b5f610b3d6119b2838661198d565b8461198d565b601f82111561052457805f5260205f20601f840160051c810160208510156119dd5750805b601f840160051c820191505b818110156119fc575f81556001016119e9565b5050505050565b815167ffffffffffffffff811115611a1d57611a1d6115f0565b611a3181611a2b8454611789565b846119b8565b6020601f821160018114611a63575f8315611a4c5750848201515b5f19600385901b1c1916600184901b1784556119fc565b5f84815260208120601f198516915b82811015611a925787850151825560209485019460019092019101611a72565b5084821015611aaf57868401515f19600387901b60f8161c191681555b50505050600190811b01905550565b6001600160a01b03858116825284166020820152604081018390526080606082018190525f90611af090830184611498565b9695505050505050565b5f60208284031215611b0a575f5ffd5b81516112fa8161146856fea264697066735822122019e60a9ea121b50a8baa351167a92fb7dbf354d053a24bedef57d8d74c1f683264736f6c634300081c0033","linkReferences":{}},"methodIdentifiers":{"approve(address,uint256)":"095ea7b3","balanceOf(address)":"70a08231","dataAccessPermissions(uint256,address,bytes32)":"c6045762","getApproved(uint256)":"081812fc","grantAccess(uint256,address,bytes32)":"d2cd6a87","hasAccess(uint256,address,bytes32)":"20273057","isApprovedForAll(address,address)":"e985e9c5","mint(address,uint256,string)":"d3fc9864","name()":"06fdde03","owner()":"8da5cb5b","ownerOf(uint256)":"6352211e","renounceOwnership()":"715018a6","revokeAccess(uint256,address,bytes32)":"6af54a26","safeTransferFrom(address,address,uint256)":"42842e0e","safeTransferFrom(address,address,uint256,bytes)":"b88d4fde","setApprovalForAll(address,bool)":"a22cb465","supportsInterface(bytes4)":"01ffc9a7","symbol()":"95d89b41","tokenIdCounter()":"98bdf6f5","tokenURI(uint256)":"c87b56dd","transferFrom(address,address,uint256)":"23b872dd","transferOwnership(address)":"f2fde38b"},"id":38}