{"abi":[{"type":"function","name":"getResearchResult","inputs":[{"name":"researchTopic","type":"string","internalType":"string"},{"name":"agentAddress","type":"address","internalType":"address"}],"outputs":[{"name":"resultHash","type":"bytes32","internalType":"bytes32"},{"name":"accuracy","type":"uint256","internalType":"uint256"}],"stateMutability":"view"},{"type":"function","name":"researchResults","inputs":[{"name":"","type":"string","internalType":"string"},{"name":"","type":"address","internalType":"address"}],"outputs":[{"name":"resultHash","type":"bytes32","internalType":"bytes32"},{"name":"accuracy","type":"uint256","internalType":"uint256"}],"stateMutability":"view"},{"type":"function","name":"submitAggregatedResult","inputs":[{"name":"researchTopic","type":"string","internalType":"string"},{"name":"resultHash","type":"bytes32","internalType":"bytes32"},{"name":"accuracy","type":"uint256","internalType":"uint256"},{"name":"agentAddress","type":"address","internalType":"address"}],"outputs":[],"stateMutability":"nonpayable"},{"type":"event","name":"ResearchResultSubmitted","inputs":[{"name":"researchTopic","type":"string","indexed":true,"internalType":"string"},{"name":"resultHash","type":"bytes32","indexed":true,"internalType":"bytes32"},{"name":"accuracy","type":"uint256","indexed":false,"internalType":"uint256"},{"name":"agentAddress","type":"address","indexed":true,"internalType":"address"}],"anonymous":false}],"bytecode":{"object":"0x6080604052348015600e575f5ffd5b506103648061001c5f395ff3fe608060405234801561000f575f5ffd5b506004361061003f575f3560e01c806320044c6d14610043578063b94c17a41461006f578063fc0f365f146100ae575b5f5ffd5b610056610051366004610270565b6100c3565b6040805192835260208301919091520160405180910390f35b61005661007d366004610270565b81516020818401810180515f8083529383019583019590952094905292909252815260409020805460019091015482565b6100c16100bc3660046102bb565b61010f565b005b5f5f5f5f856040516100d59190610318565b908152604080519182900360209081019092206001600160a01b0387165f9081529252902080546001909101549093509150509250929050565b6040518060400160405280848152602001838152505f856040516101339190610318565b9081526040805191829003602090810183206001600160a01b0386165f818152918352929020845181559301516001909301929092558490610176908790610318565b604051908190038120858252907f08da8f9f230de572dd6de1e74564c917d59ce27a343e6a13ffbda4c69681058f9060200160405180910390a450505050565b634e487b7160e01b5f52604160045260245ffd5b5f82601f8301126101d9575f5ffd5b813567ffffffffffffffff8111156101f3576101f36101b6565b604051601f8201601f19908116603f0116810167ffffffffffffffff81118282101715610222576102226101b6565b604052818152838201602001851015610239575f5ffd5b816020850160208301375f918101602001919091529392505050565b80356001600160a01b038116811461026b575f5ffd5b919050565b5f5f60408385031215610281575f5ffd5b823567ffffffffffffffff811115610297575f5ffd5b6102a3858286016101ca565b9250506102b260208401610255565b90509250929050565b5f5f5f5f608085870312156102ce575f5ffd5b843567ffffffffffffffff8111156102e4575f5ffd5b6102f0878288016101ca565b945050602085013592506040850135915061030d60608601610255565b905092959194509250565b5f82518060208501845e5f92019182525091905056fea26469706673582212209df9b4c394b744590769a3957e3d7b0f5cb28901fbd75d5c7d26ac46f520804664736f6c634300081c0033","linkReferences":{}},"methodIdentifiers":{"getResearchResult(string,address)":"20044c6d","researchResults(string,address)":"b94c17a4","submitAggregatedResult(string,bytes32,uint256,address)":"fc0f365f"},"id":40}